:100000000C9462000C948A000C948A000C948A0070
:100010000C948A000C948A000C948A000C948A0038
:100020000C948A000C948A000C948A000C94BE03F1
:100030000C948A000C948A000C948A000C948A0018
:100040000C941C030C948A000C948C030C9466038F
:100050000C948A000C948A000C948A000C948A00F8
:100060000C948A000C948A000000000023002600F3
:10007000290000000000240027002A0000000000E2
:10008000250028002B0004040404040404040202D4
:100090000202020203030303030301020408102007
:1000A0004080010204081020010204081020000012
:1000B0000008000201000003040700000000000027
:1000C00000007F0411241FBECFEFD8E0DEBFCDBFFC
:1000D00011E0A0E0B1E0E8EAFFE002C005900D9277
:1000E000AE32B107D9F722E0AEE2B1E001C01D9215
:1000F000A231B207E1F710E0C2E6D0E004C02197D8
:10010000FE010E94C707C136D107C9F70E94F80453
:100110000C94D2070C940000833081F028F48130D5
:1001200099F08230A1F008958730A9F08830B9F0B5
:100130008430D1F4809180008F7D03C08091800055
:100140008F7780938000089584B58F7702C084B53F
:100150008F7D84BD08958091B0008F7703C080911A
:10016000B0008F7D8093B00008951F93CF93DF93ED
:10017000282F30E0F901E255FF4F8491F901E6564E
:10018000FF4FD491F901EA57FF4FC491CC23C1F03E
:10019000162F81110E948C00EC2FF0E0EE0FFF1F54
:1001A000E458FF4FA591B4919FB7F894111104C082
:1001B0008C91D095D82302C0EC91DE2BDC939FBFAD
:1001C000DF91CF911F910895CF93DF9390E0FC01D1
:1001D000E656FF4F2491FC01EA57FF4F8491882394
:1001E00061F190E0880F991FFC01EE58FF4FC59117
:1001F000D491FC01E458FF4FA591B491611109C05D
:100200009FB7F8948881209582238883EC912E23D0
:100210000BC0623061F49FB7F8948881322F30951B
:1002200083238883EC912E2B2C939FBF06C08FB71E
:10023000F894E8812E2B28838FBFDF91CF9108950A
:100240008E3008F08E508770806480937C0080919F
:100250007A00806480937A0080917A0086FDFCCFDA
:10026000809178002091790090E0922B08953FB71B
:10027000F8948091360190913701A0913801B091A6
:10028000390126B5A89B05C02F3F19F00196A11D85
:10029000B11D3FBFBA2FA92F982F8827820F911D1C
:1002A000A11DB11DBC01CD0142E0660F771F881F63
:1002B000991F4A95D1F708958F929F92AF92BF925E
:1002C000CF92DF92EF92FF926B017C010E94370187
:1002D0004B015C01C114D104E104F104F1F00E946E
:1002E0003701DC01CB0188199909AA09BB09883EAD
:1002F0009340A105B10570F321E0C21AD108E108CD
:10030000F10888EE880E83E0981EA11CB11CC11470
:10031000D104E104F10419F7DDCFFF90EF90DF90F5
:10032000CF90BF90AF909F908F900895CF92DF9223
:10033000EF92FF920F931F93CF93DF936C017A019B
:100340008B01C0E0D0E0CE15DF0581F0D8016D91C2
:100350008D01D601ED91FC910190F081E02DC60157
:100360000995892B11F02196EECF7E01C701DF910F
:10037000CF911F910F91FF90EF90DF90CF90089554
:10038000089580E090E00895FC01538D448D252F61
:1003900030E0842F90E0821B930B541710F0CF961F
:1003A000089501970895FC01918D828D981761F051
:1003B000828DDF01A80FB11D5D968C91928D9F5F9C
:1003C0009F73928F90E008958FEF9FEF0895FC0147
:1003D000918D828D981731F0828DE80FF11D858DFA
:1003E00090E008958FEF9FEF0895FC01918D228D8D
:1003F000892F90E0805C9F4F821B91098F73992712
:1004000008958AE391E00E94F50121E0892B09F427
:1004100020E0822F0895FC01848DDF01A80FB11D1B
:10042000A35ABF4F2C91848D90E001968F7399272A
:10043000848FA689B7892C93A089B1898C91837008
:1004400080648C93938D848D981306C00288F38901
:10045000E02D80818F7D80830895EF92FF920F932E
:100460001F93CF93DF93EC0181E0888F9B8D8C8D60
:10047000981305C0E889F989808185FD26C0F62E8C
:100480000B8D10E00F5F1F4F0F731127E02E8C8D27
:10049000E8120CC00FB607FCFACFE889F989808111
:1004A00085FFF5CFCE010E940B02F1CF8B8DFE01AF
:1004B000E80FF11DE35AFF4FF0829FB7F8940B8FBE
:1004C000EA89FB89808180620AC09FB7F894EE892F
:1004D000FF896083E889F9898081837080648083E3
:1004E0009FBF81E090E0DF91CF911F910F91FF902E
:1004F000EF900895CF93DF93EC01888D8823C9F0A6
:10050000EA89FB89808185FD05C0A889B9898C911C
:1005100086FD0FC00FB607FCF5CF808185FFF2CFB7
:10052000A889B9898C9185FFEDCFCE010E940B027D
:10053000E7CFDF91CF91089580E090E0892B29F0FB
:100540000E94010281110C9400000895009769F047
:10055000FC0101900020E9F73197AF01481B590BCE
:10056000BC018AE391E00C94960180E090E008954C
:100570008F929F92AF92BF920F931F93CF93DF936F
:10058000CDB7DEB7A1970FB6F894DEBF0FBECDBFD3
:1005900019A2423008F44AE08E010F5D1F4F842EED
:1005A000912CA12CB12CA50194010E948A07E62F61
:1005B000B901CA0101501109EA3014F4E05D01C02B
:1005C000E95CD801EC93232B242B252B61F7C80180
:1005D0000E94A602A1960FB6F894DEBF0FBECDBF53
:1005E000DF91CF911F910F91BF90AF909F908F900F
:1005F0000895CF92DF92EF92FF92CF93DF936B013A
:100600007C016DE28AE391E00E942D02EC016627F5
:100610007727CB016C197D098E099F094AE00E945A
:10062000B8028C0F9D1FDF91CF91FF90EF90DF906C
:10063000CF9008950E94CD071F920F920FB60F9290
:1006400011242F933F938F939F93AF93BF938091E8
:10065000320190913301A0913401B0913501309174
:10066000310123E0230F2D3720F40196A11DB11D88
:1006700005C026E8230F0296A11DB11D209331016C
:100680008093320190933301A0933401B0933501EC
:100690008091360190913701A0913801B0913901D4
:1006A0000196A11DB11D8093360190933701A0934F
:1006B0003801B0933901BF91AF919F918F913F91D4
:1006C0002F910F900FBE0F901F9018951F920F92B1
:1006D0000FB60F9211242F933F934F935F936F9315
:1006E0007F938F939F93AF93BF93EF93FF938AE38F
:1006F00091E00E940B02FF91EF91BF91AF919F910A
:100700008F917F916F915F914F913F912F910F90BA
:100710000FBE0F901F9018951F920F920FB60F9259
:1007200011242F938F939F93EF93FF93E0914A01AE
:10073000F0914B018081E0915001F091510182FDD7
:1007400012C09081809153018F5F8F73209154016B
:10075000821751F0E0915301F0E0E65CFE4F958F77
:100760008093530101C08081FF91EF919F918F9100
:100770002F910F900FBE0F901F9018951F920F9200
:100780000FB60F9211242F933F934F935F936F9364
:100790007F938F939F93AF93BF93EF93FF9380913A
:1007A0002E0187FF05C010928500109284001BC0A7
:1007B00020912E01022E000C330B8091FB0190E062
:1007C0002817390784F480912E01082E000C990B0C
:1007D000FC01EE0FFF1F8E0F9F1FFC01E952FE4F21
:1007E000808186FD15C080912E018F5F80932E0140
:1007F00020912E01022E000C330B8091FB0190E022
:1008000028173907C4F480912E018C3064F113C08D
:1008100080912E01082E000C990BFC01EE0FFF1F9A
:100820008E0F9F1FFC01E952FE4F808160E08F73A5
:100830000E94B500D8CF80918400909185000496E5
:1008400080349C4918F480E49CE905C080918400C0
:1008500090918500049690938900809388008FEF93
:1008600080932E013BC020918400309185008091BF
:100870002E01082E000C990BFC01EE0FFF1F8E0FAE
:100880009F1FFC01E952FE4F81819281820F931FCD
:10089000909389008093880080912E01082E000C8F
:1008A000990BFC01EE0FFF1F8E0F9F1FFC01E952F9
:1008B000FE4F808186FF12C080912E01082E000C11
:1008C000990BFC01EE0FFF1F8E0F9F1FFC01E952D9
:1008D000FE4F808161E08F730E94B500FF91EF9120
:1008E000BF91AF919F918F917F916F915F914F9148
:1008F0003F912F910F900FBE0F901F90189510925F
:100900003D0110923C0188EE93E0A0E0B0E08093BE
:100910003E0190933F01A0934001B093410180E1DB
:1009200091E090933B0180933A0185EC90E09093A5
:1009300047018093460184EC90E0909349018093B5
:10094000480180EC90E090934B0180934A0181EC48
:1009500090E090934D0180934C0182EC90E0909355
:100960004F0180934E0186EC90E09093510180936B
:10097000500110925301109254011092550110929F
:1009800056018091FB018C3020F08FEF8093FC01A9
:1009900013C091E0980F9093FB018093FC0190E0CD
:1009A000FC01EE0FFF1F8E0F9F1FFC01E952FE4F4F
:1009B00088EB9BE0928381838091FB018C3020F057
:1009C0008FEF80930702089591E0980F9093FB01B9
:1009D0008093070290E0FC01EE0FFF1F8E0F9F1F18
:1009E000FC01E952FE4F88EB9BE0928381830895DE
:1009F000789484B5826084BD84B5816084BD85B5FA
:100A0000826085BD85B5816085BD80916E00816005
:100A100080936E00109281008091810082608093AB
:100A200081008091810081608093810080918000AD
:100A30008160809380008091B10084608093B100D8
:100A40008091B00081608093B00080917A008460D2
:100A500080937A0080917A00826080937A008091FE
:100A60007A00816080937A0080917A008068809318
:100A70007A001092C100E0914A01F0914B0182E0AE
:100A80008083E0914601F09147011082E091480196
:100A9000F09149018FEC808310925201E0914E0158
:100AA000F0914F0186E08083E0914C01F0914D017F
:100AB000808180618083E0914C01F0914D018081C3
:100AC00088608083E0914C01F0914D0180818068C5
:100AD0008083E0914C01F0914D0180818F7D808376
:100AE00062E08CE00E94E40061E08DE00E94E4009E
:100AF000C0E0EC2EC1E0FC2ECCEFD1E000E010E035
:100B00008CE0D82E92E0C92EF701A080F2E0EF0E23
:100B1000F11C1C830B83B02E60E0802F0E94E40048
:100B200088818C3008F04FC061E08A2D0E94E4007B
:100B30008881E82FF0E09F01220F331FE20FF31F9F
:100B4000E952FE4F9A2D9F732081207CA22EA92A64
:100B5000A08219821A826D2D0E94BB072CE0829F11
:100B6000B001112440E050E09B01240F351FF90132
:100B7000EE0FFF1F2E0F3F1FF901E952FE4F90812C
:100B800096FD15C04F5F5F4F4C30510569F78111DD
:100B90000EC010928000C0928100109285001092C9
:100BA0008400B19A80916F00826080936F00E88129
:100BB000F0E0CF01880F991FE80FF91FE952FE4FAF
:100BC0008081806480838B2D0E9420019E838D8391
:100BD0008B2D0E94200198878F838EE191E00E94E7
:100BE000A602888190E0FC01EE0FFF1F8E0F9F1F71
:100BF000FC01E952FE4F608166FB662760F970E0F8
:100C000080E090E04AE00E94B80284E291E00E9415
:100C1000A6020F5F1F4F2B960230110509F074CF0B
:100C200012E9212E10E0312E08E8E02EF12C88E5A3
:100C3000C82E82E0D82E94EB492E512C612C712CB9
:100C4000EAEBF0E08491E6EAF0E0C491F101D4919E
:100C5000DD2309F410C181110E948C00ED2FF0E01A
:100C6000EE0FFF1FE859FF4FA591B4918C91C82357
:100C700009F401C180912F0190913001892B09F471
:100C800048C060E08DE00E94B50062E370E080E063
:100C900090E00E945C0161E08DE00E94B50062E39B
:100CA00070E080E090E00E945C01B2E1AB2EB2E027
:100CB000BB2ECCEFD1E08B810E9420018C0187E21A
:100CC00091E00E94A602B801012E000C880B990B3E
:100CD00097FF03C00E94F90203C04AE00E94B802D5
:100CE00084E291E00E94A6028D819E810817190777
:100CF00014F41E830D838F8198858017910714F457
:100D000018870F832B96AC16BD06A9F60E949C028D
:100D100097CF02E112E0CCEFD1E08B810E9420015D
:100D20008D809E80092C000CAA08BB08092E000C9F
:100D3000AA0BBB0B9C01AD01281939094A095B09B3
:100D4000A4EBB0E00E9477072F813885032E000CBA
:100D5000440B550B281939094A095B090E945807A9
:100D6000C90169857A85261B370B37FF03C031958A
:100D700021953109253131050CF4CB018032F2E0A7
:100D80009F07D4F597FD06C0853B91052CF084EBB9
:100D900090E002C080E090E029814701821A91082A
:100DA00027FD9394D401AA0FBB1FAA0FBB1F4D01AF
:100DB000BB0FAA08BB082A81A601421B510927FDC7
:100DC00053959A01220F331F220F331FA901330FAE
:100DD000660B770B9A01AB01281939094A095B099F
:100DE000DC010E948207A30192010E945807820E33
:100DF000931EA41EB51EC40168816C3080F5298144
:100E0000F701E21BF10927FDF3959F01220F331F24
:100E1000220F331F821793077CF02A81A601421B01
:100E2000510927FD5395440F551F440F551F9C0131
:100E3000481759070CF49A0122503109220F331F29
:100E40007FB7F894862F90E0AC01440F551F840FB4
:100E5000951FFC01E952FE4F328321837FBF61E081
:100E600070E080E090E00E945C012B960C171D075B
:100E700009F053CF4BCFC1E080912F019091300109
:100E8000892B09F0C0E08C2F90E090933001809383
:100E90002F0161E08DE00E94B50068EE73E080E014
:100EA00090E00E945C016C2F8DE00E94B500E2CEC4
:100EB000052E97FB1EF400940E946F0757FD07D084
:100EC0000E948A0707FC03D04EF40C946F075095DC
:100ED0004095309521953F4F4F4F5F4F0895909526
:100EE0008095709561957F4F8F4F9F4F08950E9419
:100EF000AC07A59F900DB49F900DA49F800D911DF0
:100F000011240895B7FF0C9477070E947707821B7E
:100F1000930B0895A1E21A2EAA1BBB1BFD010DC065
:100F2000AA1FBB1FEE1FFF1FA217B307E407F50799
:100F300020F0A21BB30BE40BF50B661F771F881F75
:100F4000991F1A9469F760957095809590959B010B
:100F5000AC01BD01CF010895A29FB001B39FC001B4
:100F6000A39F700D811D1124911DB29F700D811DD5
:100F70001124911D0895991B79E004C0991F9617BB
:100F800008F0961B881F7A95C9F780950895EE0F93
:100F9000FF1F0590F491E02D099481E090E0F89412
:080FA0000C94D207F894FFCF76
:100FA80003000500060009000A000B00000000000D
:100FB8002D029601C4017A02F501D301E7015057C9
:0E0FC8004D3A20000D0A0076616C203A0000C0
:107E0000112484B714BE81FFF0D085E080938100F7
:107E100082E08093C00088E18093C10086E0809377
:107E2000C20080E18093C4008EE0C9D0259A86E02C
:107E300020E33CEF91E0309385002093840096BBD3
:107E4000B09BFECF1D9AA8958150A9F7CC24DD24C4
:107E500088248394B5E0AB2EA1E19A2EF3E0BF2EE7
:107E6000A2D0813461F49FD0082FAFD0023811F036
:107E7000013811F484E001C083E08DD089C08234E0
:107E800011F484E103C0853419F485E0A6D080C0E4
:107E9000853579F488D0E82EFF2485D0082F10E0AE
:107EA000102F00270E291F29000F111F8ED06801E7
:107EB0006FC0863521F484E090D080E0DECF843638
:107EC00009F040C070D06FD0082F6DD080E0C81688
:107ED00080E7D80618F4F601B7BEE895C0E0D1E017
:107EE00062D089930C17E1F7F0E0CF16F0E7DF06D8
:107EF00018F0F601B7BEE89568D007B600FCFDCFD4
:107F0000A601A0E0B1E02C9130E011968C91119780
:107F100090E0982F8827822B932B1296FA010C0160
:107F200087BEE89511244E5F5F4FF1E0A038BF0790
:107F300051F7F601A7BEE89507B600FCFDCF97BE46
:107F4000E89526C08437B1F42ED02DD0F82E2BD052
:107F50003CD0F601EF2C8F010F5F1F4F84911BD097
:107F6000EA94F801C1F70894C11CD11CFA94CF0C13
:107F7000D11C0EC0853739F428D08EE10CD085E9AC
:107F80000AD08FE07ACF813511F488E018D01DD067
:107F900080E101D065CF982F8091C00085FFFCCF94
:107FA0009093C60008958091C00087FFFCCF809118
:107FB000C00084FD01C0A8958091C6000895E0E648
:107FC000F0E098E1908380830895EDDF803219F02E
:107FD00088E0F5DFFFCF84E1DECF1F93182FE3DFCA
:107FE0001150E9F7F2DF1F91089580E0E8DFEE27F6
:047FF000FF270994CA
:027FFE00040479
:0400000300007E007B
:00000001FF
